{
  "contractName": "ToastyFinance",
  "abi": [
    {
      "inputs": [
        {
          "internalType": "address",
          "name": "_token",
          "type": "address"
        }
      ],
      "stateMutability": "nonpayable",
      "type": "constructor"
    },
    {
      "inputs": [
        {
          "internalType": "address",
          "name": "",
          "type": "address"
        }
      ],
      "name": "accounts",
      "outputs": [
        {
          "internalType": "uint256",
          "name": "amount",
          "type": "uint256"
        },
        {
          "internalType": "uint256",
          "name": "updatedAt",
          "type": "uint256"
        }
      ],
      "stateMutability": "view",
      "type": "function",
      "constant": true
    },
    {
      "inputs": [],
      "name": "toast",
      "outputs": [
        {
          "internalType": "contract ERC20",
          "name": "",
          "type": "address"
        }
      ],
      "stateMutability": "view",
      "type": "function",
      "constant": true
    },
    {
      "inputs": [
        {
          "internalType": "uint256",
          "name": "_amount",
          "type": "uint256"
        }
      ],
      "name": "deposit",
      "outputs": [],
      "stateMutability": "nonpayable",
      "type": "function"
    },
    {
      "inputs": [
        {
          "internalType": "uint256",
          "name": "_amount",
          "type": "uint256"
        }
      ],
      "name": "withdraw",
      "outputs": [],
      "stateMutability": "nonpayable",
      "type": "function"
    },
    {
      "inputs": [
        {
          "internalType": "uint256",
          "name": "_timestamp",
          "type": "uint256"
        }
      ],
      "name": "pendingRewards",
      "outputs": [
        {
          "internalType": "uint256",
          "name": "",
          "type": "uint256"
        }
      ],
      "stateMutability": "view",
      "type": "function",
      "constant": true
    }
  ],
  "bytecode": "0x60806040526001805534801561001457600080fd5b50604051610c03380380610c03833981810160405281019061003691906100df565b806000806101000a81548173ffffffffffffffffffffffffffffffffffffffff021916908373ffffffffffffffffffffffffffffffffffffffff1602179055505061010c565b600080fd5b600073ffffffffffffffffffffffffffffffffffffffff82169050919050565b60006100ac82610081565b9050919050565b6100bc816100a1565b81146100c757600080fd5b50565b6000815190506100d9816100b3565b92915050565b6000602082840312156100f5576100f461007c565b5b6000610103848285016100ca565b91505092915050565b610ae88061011b6000396000f3fe608060405234801561001057600080fd5b50600436106100575760003560e01c80632e1a7d4d1461005c5780635e5c06e2146100785780637dcb2abf146100a9578063b6b55f25146100d9578063bff9d78c146100f5575b600080fd5b61007660048036038101906100719190610669565b610113565b005b610092600480360381019061008d91906106f4565b610341565b6040516100a0929190610730565b60405180910390f35b6100c360048036038101906100be9190610669565b610365565b6040516100d09190610759565b60405180910390f35b6100f360048036038101906100ee9190610669565b61045f565b005b6100fd61060a565b60405161010a91906107d3565b60405180910390f35b600061011e42610365565b905080600260003373ffffffffffffffffffffffffffffffffffffffff1673ffffffffffffffffffffffffffffffffffffffff1681526020019081526020016000206000016000828254610172919061081d565b92505081905550600260003373ffffffffffffffffffffffffffffffffffffffff1673ffffffffffffffffffffffffffffffffffffffff168152602001908152602001600020600001548211156101fe576040517f08c379a00000000000000000000000000000000000000000000000000000000081526004016101f5906108d0565b60405180910390fd5b81600260003373ffffffffffffffffffffffffffffffffffffffff1673ffffffffffffffffffffffffffffffffffffffff168152602001908152602001600020600001600082825461025091906108f0565b9250508190555042600260003373ffffffffffffffffffffffffffffffffffffffff1673ffffffffffffffffffffffffffffffffffffffff1681526020019081526020016000206001018190555060008054906101000a900473ffffffffffffffffffffffffffffffffffffffff1673ffffffffffffffffffffffffffffffffffffffff1663a9059cbb33846040518363ffffffff1660e01b81526004016102f9929190610933565b6020604051808303816000875af1158015610318573d6000803e3d6000fd5b505050506040513d601f19601f8201168201806040525081019061033c9190610994565b505050565b60026020528060005260406000206000915090508060000154908060010154905082565b600080600260003373ffffffffffffffffffffffffffffffffffffffff1673ffffffffffffffffffffffffffffffffffffffff16815260200190815260200160002060010154836103b691906108f0565b9050600062015180662386f26fc100006001546103d391906109c1565b6103dd9190610a4a565b90506064662386f26fc100008383600260003373ffffffffffffffffffffffffffffffffffffffff1673ffffffffffffffffffffffffffffffffffffffff1681526020019081526020016000206000015461043891906109c1565b61044291906109c1565b61044c9190610a4a565b6104569190610a4a565b92505050919050565b600061046a42610365565b905080600260003373ffffffffffffffffffffffffffffffffffffffff1673ffffffffffffffffffffffffffffffffffffffff16815260200190815260200160002060000160008282546104be919061081d565b9250508190555081600260003373ffffffffffffffffffffffffffffffffffffffff1673ffffffffffffffffffffffffffffffffffffffff1681526020019081526020016000206000016000828254610517919061081d565b9250508190555042600260003373ffffffffffffffffffffffffffffffffffffffff1673ffffffffffffffffffffffffffffffffffffffff1681526020019081526020016000206001018190555060008054906101000a900473ffffffffffffffffffffffffffffffffffffffff1673ffffffffffffffffffffffffffffffffffffffff166323b872dd3330856040518463ffffffff1660e01b81526004016105c293929190610a7b565b6020604051808303816000875af11580156105e1573d6000803e3d6000fd5b505050506040513d601f19601f820116820180604052508101906106059190610994565b505050565b60008054906101000a900473ffffffffffffffffffffffffffffffffffffffff1681565b600080fd5b6000819050919050565b61064681610633565b811461065157600080fd5b50565b6000813590506106638161063d565b92915050565b60006020828403121561067f5761067e61062e565b5b600061068d84828501610654565b91505092915050565b600073ffffffffffffffffffffffffffffffffffffffff82169050919050565b60006106c182610696565b9050919050565b6106d1816106b6565b81146106dc57600080fd5b50565b6000813590506106ee816106c8565b92915050565b60006020828403121561070a5761070961062e565b5b6000610718848285016106df565b91505092915050565b61072a81610633565b82525050565b60006040820190506107456000830185610721565b6107526020830184610721565b9392505050565b600060208201905061076e6000830184610721565b92915050565b6000819050919050565b600061079961079461078f84610696565b610774565b610696565b9050919050565b60006107ab8261077e565b9050919050565b60006107bd826107a0565b9050919050565b6107cd816107b2565b82525050565b60006020820190506107e860008301846107c4565b92915050565b7f4e487b7100000000000000000000000000000000000000000000000000000000600052601160045260246000fd5b600061082882610633565b915061083383610633565b9250827fffffffffffffffffffffffffffffffffffffffffffffffffffffffffffffffff03821115610868576108676107ee565b5b828201905092915050565b600082825260208201905092915050565b7f416d6f756e74206572726f720000000000000000000000000000000000000000600082015250565b60006108ba600c83610873565b91506108c582610884565b602082019050919050565b600060208201905081810360008301526108e9816108ad565b9050919050565b60006108fb82610633565b915061090683610633565b925082821015610919576109186107ee565b5b828203905092915050565b61092d816106b6565b82525050565b60006040820190506109486000830185610924565b6109556020830184610721565b9392505050565b60008115159050919050565b6109718161095c565b811461097c57600080fd5b50565b60008151905061098e81610968565b92915050565b6000602082840312156109aa576109a961062e565b5b60006109b88482850161097f565b91505092915050565b60006109cc82610633565b91506109d783610633565b9250817fffffffffffffffffffffffffffffffffffffffffffffffffffffffffffffffff0483118215151615610a1057610a0f6107ee565b5b828202905092915050565b7f4e487b7100000000000000000000000000000000000000000000000000000000600052601260045260246000fd5b6000610a5582610633565b9150610a6083610633565b925082610a7057610a6f610a1b565b5b828204905092915050565b6000606082019050610a906000830186610924565b610a9d6020830185610924565b610aaa6040830184610721565b94935050505056fea2646970667358221220b0235c78ddfa9f3462d9f79a953e71a9c0fe0bde945e4b9efc420b88789ade7664736f6c634300080b0033",
  "immutableReferences": {},
  "source": "// SPDX-License-Identifier: MIT\npragma solidity ^0.8.0;\n\nimport \"@openzeppelin/contracts/token/ERC20/ERC20.sol\";\n\ncontract ToastyFinance {\n  ERC20 public toast;\n  uint rewardsPercentPerDay = 1;\n\n  struct Account {\n    uint amount;\n    uint updatedAt;\n  }\n\n  mapping(address => Account) public accounts;\n\n  constructor(address _token) {\n    toast = ERC20(_token);\n  }\n\n  function deposit(uint _amount) public {\n    uint rewards = pendingRewards(block.timestamp);\n    accounts[msg.sender].amount += rewards; // update amount with pending rewards\n\n    accounts[msg.sender].amount += _amount;\n    accounts[msg.sender].updatedAt = block.timestamp;\n    toast.transferFrom(msg.sender, address(this), _amount);\n  }\n\n  function withdraw(uint _amount) public {\n    uint rewards = pendingRewards(block.timestamp);\n    accounts[msg.sender].amount += rewards; // update amount with pending rewards\n    require(_amount <= accounts[msg.sender].amount, 'Amount error');\n\n    accounts[msg.sender].amount -= _amount; // withdraw amount\n    accounts[msg.sender].updatedAt = block.timestamp;\n    toast.transfer(msg.sender, _amount);\n  }\n\n  function pendingRewards(uint _timestamp) public view returns(uint) {\n    uint secondsElapsed = _timestamp - accounts[msg.sender].updatedAt;\n    uint rewardsPerSecond = (rewardsPercentPerDay * 1e16 /86400);\n    return ((accounts[msg.sender].amount * rewardsPerSecond * secondsElapsed) / 1e16) / 100;\n  }\n}\n",
  "sourcePath": "/Users/bruno/dev/crypto/toasty/contracts/ToastyFinance.sol",
  "compiler": {
    "name": "solc",
    "version": "0.8.11+commit.d7f03943.Emscripten.clang"
  },
  "schemaVersion": "3.4.5",
  "updatedAt": "2022-05-09T12:39:23.785Z",
  "networkType": "ethereum",
  "devdoc": {
    "kind": "dev",
    "methods": {},
    "version": 1
  },
  "userdoc": {
    "kind": "user",
    "methods": {},
    "version": 1
  }
}