{
  "contractName": "TruffleFinance",
  "abi": [
    {
      "inputs": [
        {
          "internalType": "address",
          "name": "_token",
          "type": "address"
        }
      ],
      "stateMutability": "nonpayable",
      "type": "constructor"
    },
    {
      "inputs": [
        {
          "internalType": "address",
          "name": "",
          "type": "address"
        }
      ],
      "name": "accounts",
      "outputs": [
        {
          "internalType": "uint256",
          "name": "amount",
          "type": "uint256"
        },
        {
          "internalType": "uint256",
          "name": "updatedAt",
          "type": "uint256"
        }
      ],
      "stateMutability": "view",
      "type": "function"
    },
    {
      "inputs": [],
      "name": "toast",
      "outputs": [
        {
          "internalType": "contract IERC20",
          "name": "",
          "type": "address"
        }
      ],
      "stateMutability": "view",
      "type": "function"
    },
    {
      "inputs": [
        {
          "internalType": "uint256",
          "name": "_amount",
          "type": "uint256"
        }
      ],
      "name": "deposit",
      "outputs": [],
      "stateMutability": "nonpayable",
      "type": "function"
    },
    {
      "inputs": [
        {
          "internalType": "uint256",
          "name": "_amount",
          "type": "uint256"
        }
      ],
      "name": "withdraw",
      "outputs": [],
      "stateMutability": "nonpayable",
      "type": "function"
    },
    {
      "inputs": [],
      "name": "pendingRewards",
      "outputs": [
        {
          "internalType": "uint256",
          "name": "",
          "type": "uint256"
        }
      ],
      "stateMutability": "view",
      "type": "function"
    }
  ],
  "bytecode": "0x60806040526001805534801561001457600080fd5b50604051610ae2380380610ae2833981810160405281019061003691906100df565b806000806101000a81548173ffffffffffffffffffffffffffffffffffffffff021916908373ffffffffffffffffffffffffffffffffffffffff1602179055505061010c565b600080fd5b600073ffffffffffffffffffffffffffffffffffffffff82169050919050565b60006100ac82610081565b9050919050565b6100bc816100a1565b81146100c757600080fd5b50565b6000815190506100d9816100b3565b92915050565b6000602082840312156100f5576100f461007c565b5b6000610103848285016100ca565b91505092915050565b6109c78061011b6000396000f3fe608060405234801561001057600080fd5b50600436106100575760003560e01c80632e1a7d4d1461005c5780635e5c06e214610078578063b6b55f25146100a9578063bff9d78c146100c5578063eded3fda146100e3575b600080fd5b61007660048036038101906100719190610548565b610101565b005b610092600480360381019061008d91906105d3565b610296565b6040516100a092919061060f565b60405180910390f35b6100c360048036038101906100be9190610548565b6102ba565b005b6100cd61040a565b6040516100da9190610697565b60405180910390f35b6100eb61042e565b6040516100f891906106b2565b60405180910390f35b6000600260003373ffffffffffffffffffffffffffffffffffffffff1673ffffffffffffffffffffffffffffffffffffffff168152602001908152602001600020604051806040016040529081600082015481526020016001820154815250509050600061016d61042e565b9050808260000181815161018191906106fc565b9150818152505081600001518311156101cf576040517f08c379a00000000000000000000000000000000000000000000000000000000081526004016101c6906107af565b60405180910390fd5b82826000018181516101e191906107cf565b915081815250504282602001818152505060008054906101000a900473ffffffffffffffffffffffffffffffffffffffff1673ffffffffffffffffffffffffffffffffffffffff1663a9059cbb33856040518363ffffffff1660e01b815260040161024d929190610812565b6020604051808303816000875af115801561026c573d6000803e3d6000fd5b505050506040513d601f19601f820116820180604052508101906102909190610873565b50505050565b60026020528060005260406000206000915090508060000154908060010154905082565b6000600260003373ffffffffffffffffffffffffffffffffffffffff1673ffffffffffffffffffffffffffffffffffffffff168152602001908152602001600020604051806040016040529081600082015481526020016001820154815250509050600061032661042e565b9050808260000181815161033a91906106fc565b91508181525050828260000181815161035391906106fc565b915081815250504282602001818152505060008054906101000a900473ffffffffffffffffffffffffffffffffffffffff1673ffffffffffffffffffffffffffffffffffffffff166323b872dd3330866040518463ffffffff1660e01b81526004016103c1939291906108a0565b6020604051808303816000875af11580156103e0573d6000803e3d6000fd5b505050506040513d601f19601f820116820180604052508101906104049190610873565b50505050565b60008054906101000a900473ffffffffffffffffffffffffffffffffffffffff1681565b600080600260003373ffffffffffffffffffffffffffffffffffffffff1673ffffffffffffffffffffffffffffffffffffffff16815260200190815260200160002060405180604001604052908160008201548152602001600182015481525050905060008160200151426104a391906107cf565b9050600062015180662386f26fc100006001546104c091906108d7565b6104ca9190610960565b90506064662386f26fc10000838386600001516104e791906108d7565b6104f191906108d7565b6104fb9190610960565b6105059190610960565b935050505090565b600080fd5b6000819050919050565b61052581610512565b811461053057600080fd5b50565b6000813590506105428161051c565b92915050565b60006020828403121561055e5761055d61050d565b5b600061056c84828501610533565b91505092915050565b600073ffffffffffffffffffffffffffffffffffffffff82169050919050565b60006105a082610575565b9050919050565b6105b081610595565b81146105bb57600080fd5b50565b6000813590506105cd816105a7565b92915050565b6000602082840312156105e9576105e861050d565b5b60006105f7848285016105be565b91505092915050565b61060981610512565b82525050565b60006040820190506106246000830185610600565b6106316020830184610600565b9392505050565b6000819050919050565b600061065d61065861065384610575565b610638565b610575565b9050919050565b600061066f82610642565b9050919050565b600061068182610664565b9050919050565b61069181610676565b82525050565b60006020820190506106ac6000830184610688565b92915050565b60006020820190506106c76000830184610600565b92915050565b7f4e487b7100000000000000000000000000000000000000000000000000000000600052601160045260246000fd5b600061070782610512565b915061071283610512565b9250827fffffffffffffffffffffffffffffffffffffffffffffffffffffffffffffffff03821115610747576107466106cd565b5b828201905092915050565b600082825260208201905092915050565b7f416d6f756e74206572726f720000000000000000000000000000000000000000600082015250565b6000610799600c83610752565b91506107a482610763565b602082019050919050565b600060208201905081810360008301526107c88161078c565b9050919050565b60006107da82610512565b91506107e583610512565b9250828210156107f8576107f76106cd565b5b828203905092915050565b61080c81610595565b82525050565b60006040820190506108276000830185610803565b6108346020830184610600565b9392505050565b60008115159050919050565b6108508161083b565b811461085b57600080fd5b50565b60008151905061086d81610847565b92915050565b6000602082840312156108895761088861050d565b5b60006108978482850161085e565b91505092915050565b60006060820190506108b56000830186610803565b6108c26020830185610803565b6108cf6040830184610600565b949350505050565b60006108e282610512565b91506108ed83610512565b9250817fffffffffffffffffffffffffffffffffffffffffffffffffffffffffffffffff0483118215151615610926576109256106cd565b5b828202905092915050565b7f4e487b7100000000000000000000000000000000000000000000000000000000600052601260045260246000fd5b600061096b82610512565b915061097683610512565b92508261098657610985610931565b5b82820490509291505056fea2646970667358221220e7d95aabc287d0a67a770fba91bc1f0c6496ab96348f54c2cd04ce5b939fb83564736f6c634300080b0033",
  "immutableReferences": {},
  "source": "// SPDX-License-Identifier: MIT\npragma solidity ^0.8.0;\n\nimport \"@openzeppelin/contracts/token/ERC20/ERC20.sol\";\nimport \"@openzeppelin/contracts/utils/Address.sol\";\nimport \"@openzeppelin/contracts/token/ERC20/utils/SafeERC20.sol\";\nimport \"@openzeppelin/contracts/access/Ownable.sol\";\n\ncontract TruffleFinance {\n  IERC20 public toast;\n  uint rewardsPercentPerDay = 1;\n\n  struct Account {\n    uint amount;\n    uint updatedAt;\n  }\n\n  mapping(address => Account) public accounts;\n\n  constructor(address _token) {\n    toast = IERC20(_token);\n  }\n\n  function deposit(uint _amount) public {\n    Account memory account = accounts[msg.sender];\n    uint rewards = pendingRewards();\n    account.amount += rewards; // update amount with pending rewards\n\n    account.amount += _amount;\n    account.updatedAt = block.timestamp;\n    toast.transferFrom(msg.sender, address(this), _amount);\n  }\n\n  function withdraw(uint _amount) public {\n    Account memory account = accounts[msg.sender];\n    uint rewards = pendingRewards();\n    account.amount += rewards; // update amount with pending rewards\n    require(_amount <= account.amount, 'Amount error');\n\n    account.amount -= _amount; // withdraw amount\n    account.updatedAt = block.timestamp;\n    toast.transfer(msg.sender, _amount);\n  }\n\n  function pendingRewards() public view returns(uint) {\n    Account memory account = accounts[msg.sender];\n    uint secondsElapsed = block.timestamp - account.updatedAt;\n    uint rewardsPerSecond = (rewardsPercentPerDay * 1e16 /86400);\n    return ((account.amount * rewardsPerSecond * secondsElapsed) / 1e16) / 100;\n  }\n}\n",
  "sourcePath": "/Users/bruno/dev/crypto/toasty/contracts/TruffleFinance.sol",
  "compiler": {
    "name": "solc",
    "version": "0.8.11+commit.d7f03943.Emscripten.clang"
  },
  "schemaVersion": "3.4.5",
  "updatedAt": "2022-05-06T12:55:23.195Z",
  "devdoc": {
    "kind": "dev",
    "methods": {},
    "version": 1
  },
  "userdoc": {
    "kind": "user",
    "methods": {},
    "version": 1
  }
}